{
    "_format": "hh-sol-artifact-1",
    "contractName": "GalaxyPortal",
    "sourceName": "contracts/GalaxyPortal.sol",
    "abi": [
        {
            "inputs": [],
            "stateMutability": "nonpayable",
            "type": "constructor"
        },
        {
            "inputs": [
                {
                    "internalType": "address",
                    "name": "_explorer",
                    "type": "address"
                }
            ],
            "name": "getExplorerStars",
            "outputs": [
                {
                    "internalType": "uint256",
                    "name": "",
                    "type": "uint256"
                }
            ],
            "stateMutability": "view",
            "type": "function"
        },
        {
            "inputs": [],
            "name": "getExplorers",
            "outputs": [
                {
                    "internalType": "address[]",
                    "name": "",
                    "type": "address[]"
                }
            ],
            "stateMutability": "view",
            "type": "function"
        },
        {
            "inputs": [],
            "name": "getTotalStars",
            "outputs": [
                {
                    "internalType": "uint256",
                    "name": "",
                    "type": "uint256"
                }
            ],
            "stateMutability": "view",
            "type": "function"
        },
        {
            "inputs": [],
            "name": "star",
            "outputs": [],
            "stateMutability": "nonpayable",
            "type": "function"
        }
    ],
    "bytecode": "0x608060405234801561001057600080fd5b506100596040518060400160405280601a81526020017f4c65742773206275696c6420736f6d657468696e6720636f6f6c00000000000081525061005e60201b6103a21760201c565b6101d8565b6100fa8160405160240161007291906101b6565b6040516020818303038152906040527f41304fac000000000000000000000000000000000000000000000000000000007bffffffffffffffffffffffffffffffffffffffffffffffffffffffff19166020820180517bffffffffffffffffffffffffffffffffffffffffffffffffffffffff83818316178352505050506100fd60201b60201c565b50565b60008151905060006a636f6e736f6c652e6c6f679050602083016000808483855afa5050505050565b600081519050919050565b600082825260208201905092915050565b60005b83811015610160578082015181840152602081019050610145565b60008484015250505050565b6000601f19601f8301169050919050565b600061018882610126565b6101928185610131565b93506101a2818560208601610142565b6101ab8161016c565b840191505092915050565b600060208201905081810360008301526101d0818461017d565b905092915050565b6109f9806101e76000396000f3fe608060405234801561001057600080fd5b506004361061004c5760003560e01c806318e60dd7146100515780632c6dbb1c1461006f578063720f159814610079578063ced5d35e14610097575b600080fd5b6100596100c7565b6040516100669190610654565b60405180910390f35b610077610112565b005b610081610225565b60405161008e919061075f565b60405180910390f35b6100b160048036038101906100ac91906107b2565b6102da565b6040516100be9190610654565b60405180910390f35b600061010a6040518060400160405280601681526020017f5765206861766520256420746f74616c2073746172730000000000000000000081525060005461043b565b600054905090565b6001600080828254610124919061080e565b9250508190555060018060003373ffffffffffffffffffffffffffffffffffffffff1673ffffffffffffffffffffffffffffffffffffffff168152602001908152602001600020600082825461017a919061080e565b925050819055506002339080600181540180825580915050600190039060005260206000200160009091909190916101000a81548173ffffffffffffffffffffffffffffffffffffffff021916908373ffffffffffffffffffffffffffffffffffffffff1602179055506102236040518060400160405280601481526020017f2573206769766520796f75206120737461722021000000000000000000000000815250336104d7565b565b606061024e6040518060600160405280602281526020016109a26022913960028054905061043b565b60028054806020026020016040519081016040528092919081815260200182805480156102d057602002820191906000526020600020905b8160009054906101000a900473ffffffffffffffffffffffffffffffffffffffff1673ffffffffffffffffffffffffffffffffffffffff1681526020019060010190808311610286575b5050505050905090565b600061035b6040518060400160405280601881526020017f2573206769766520796f7520256420737461722873292021000000000000000081525033600160008673ffffffffffffffffffffffffffffffffffffffff1673ffffffffffffffffffffffffffffffffffffffff16815260200190815260200160002054610573565b600160008373ffffffffffffffffffffffffffffffffffffffff1673ffffffffffffffffffffffffffffffffffffffff168152602001908152602001600020549050919050565b610438816040516024016103b691906108d2565b6040516020818303038152906040527f41304fac000000000000000000000000000000000000000000000000000000007bffffffffffffffffffffffffffffffffffffffffffffffffffffffff19166020820180517bffffffffffffffffffffffffffffffffffffffffffffffffffffffff8381831617835250505050610612565b50565b6104d382826040516024016104519291906108f4565b6040516020818303038152906040527fb60e72cc000000000000000000000000000000000000000000000000000000007bffffffffffffffffffffffffffffffffffffffffffffffffffffffff19166020820180517bffffffffffffffffffffffffffffffffffffffffffffffffffffffff8381831617835250505050610612565b5050565b61056f82826040516024016104ed929190610933565b6040516020818303038152906040527f319af333000000000000000000000000000000000000000000000000000000007bffffffffffffffffffffffffffffffffffffffffffffffffffffffff19166020820180517bffffffffffffffffffffffffffffffffffffffffffffffffffffffff8381831617835250505050610612565b5050565b61060d83838360405160240161058b93929190610963565b6040516020818303038152906040527f0d26b925000000000000000000000000000000000000000000000000000000007bffffffffffffffffffffffffffffffffffffffffffffffffffffffff19166020820180517bffffffffffffffffffffffffffffffffffffffffffffffffffffffff8381831617835250505050610612565b505050565b60008151905060006a636f6e736f6c652e6c6f679050602083016000808483855afa5050505050565b6000819050919050565b61064e8161063b565b82525050565b60006020820190506106696000830184610645565b92915050565b600081519050919050565b600082825260208201905092915050565b6000819050602082019050919050565b600073ffffffffffffffffffffffffffffffffffffffff82169050919050565b60006106c68261069b565b9050919050565b6106d6816106bb565b82525050565b60006106e883836106cd565b60208301905092915050565b6000602082019050919050565b600061070c8261066f565b610716818561067a565b93506107218361068b565b8060005b8381101561075257815161073988826106dc565b9750610744836106f4565b925050600181019050610725565b5085935050505092915050565b600060208201905081810360008301526107798184610701565b905092915050565b600080fd5b61078f816106bb565b811461079a57600080fd5b50565b6000813590506107ac81610786565b92915050565b6000602082840312156107c8576107c7610781565b5b60006107d68482850161079d565b91505092915050565b7f4e487b7100000000000000000000000000000000000000000000000000000000600052601160045260246000fd5b60006108198261063b565b91506108248361063b565b925082820190508082111561083c5761083b6107df565b5b92915050565b600081519050919050565b600082825260208201905092915050565b60005b8381101561087c578082015181840152602081019050610861565b60008484015250505050565b6000601f19601f8301169050919050565b60006108a482610842565b6108ae818561084d565b93506108be81856020860161085e565b6108c781610888565b840191505092915050565b600060208201905081810360008301526108ec8184610899565b905092915050565b6000604082019050818103600083015261090e8185610899565b905061091d6020830184610645565b9392505050565b61092d816106bb565b82525050565b6000604082019050818103600083015261094d8185610899565b905061095c6020830184610924565b9392505050565b6000606082019050818103600083015261097d8186610899565b905061098c6020830185610924565b6109996040830184610645565b94935050505056fe796f7520686176652025642077656233207370616365206578706c6f726572732021a2646970667358221220a0a19c680d3a6945bdaed7439f7a06115249b69869350e1a29e7df8db08f576864736f6c63430008110033",
    "linkReferences": {},
    "deployedLinkReferences": {}
}