{
    "_format": "hh-sol-artifact-1",
    "contractName": "GalaxyPortal",
    "sourceName": "contracts/GalaxyPortal.sol",
    "abi": [
        {
            "inputs": [],
            "stateMutability": "payable",
            "type": "constructor"
        },
        {
            "anonymous": false,
            "inputs": [
                {
                    "indexed": true,
                    "internalType": "address",
                    "name": "from",
                    "type": "address"
                },
                {
                    "indexed": false,
                    "internalType": "uint256",
                    "name": "timestamp",
                    "type": "uint256"
                },
                {
                    "indexed": false,
                    "internalType": "string",
                    "name": "message",
                    "type": "string"
                }
            ],
            "name": "NewStar",
            "type": "event"
        },
        {
            "inputs": [],
            "name": "getAllStars",
            "outputs": [
                {
                    "components": [
                        {
                            "internalType": "address",
                            "name": "explorer",
                            "type": "address"
                        },
                        {
                            "internalType": "string",
                            "name": "message",
                            "type": "string"
                        },
                        {
                            "internalType": "uint256",
                            "name": "timestamp",
                            "type": "uint256"
                        }
                    ],
                    "internalType": "struct GalaxyPortal.Star[]",
                    "name": "",
                    "type": "tuple[]"
                }
            ],
            "stateMutability": "view",
            "type": "function"
        },
        {
            "inputs": [],
            "name": "getTotalStars",
            "outputs": [
                {
                    "internalType": "uint256",
                    "name": "",
                    "type": "uint256"
                }
            ],
            "stateMutability": "view",
            "type": "function"
        },
        {
            "inputs": [
                {
                    "internalType": "address",
                    "name": "",
                    "type": "address"
                }
            ],
            "name": "lastWavedAt",
            "outputs": [
                {
                    "internalType": "uint256",
                    "name": "",
                    "type": "uint256"
                }
            ],
            "stateMutability": "view",
            "type": "function"
        },
        {
            "inputs": [
                {
                    "internalType": "string",
                    "name": "_message",
                    "type": "string"
                }
            ],
            "name": "star",
            "outputs": [],
            "stateMutability": "nonpayable",
            "type": "function"
        }
    ],
    "bytecode": "0x60806040526200004f6040518060400160405280601a81526020017f4c65742773206275696c6420736f6d657468696e6720636f6f6c0000000000008152506200007760201b620006761760201c565b606444426200005f91906200017c565b6200006b9190620001e6565b600181905550620002dc565b62000117816040516024016200008e9190620002b8565b6040516020818303038152906040527f41304fac000000000000000000000000000000000000000000000000000000007bffffffffffffffffffffffffffffffffffffffffffffffffffffffff19166020820180517bffffffffffffffffffffffffffffffffffffffffffffffffffffffff83818316178352505050506200011a60201b60201c565b50565b60008151905060006a636f6e736f6c652e6c6f679050602083016000808483855afa5050505050565b6000819050919050565b7f4e487b7100000000000000000000000000000000000000000000000000000000600052601160045260246000fd5b6000620001898262000143565b9150620001968362000143565b9250828201905080821115620001b157620001b06200014d565b5b92915050565b7f4e487b7100000000000000000000000000000000000000000000000000000000600052601260045260246000fd5b6000620001f38262000143565b9150620002008362000143565b925082620002135762000212620001b7565b5b828206905092915050565b600081519050919050565b600082825260208201905092915050565b60005b838110156200025a5780820151818401526020810190506200023d565b60008484015250505050565b6000601f19601f8301169050919050565b600062000284826200021e565b62000290818562000229565b9350620002a28185602086016200023a565b620002ad8162000266565b840191505092915050565b60006020820190508181036000830152620002d4818462000277565b905092915050565b61143f80620002ec6000396000f3fe608060405234801561001057600080fd5b506004361061004c5760003560e01c80630ac6f5711461005157806318e60dd71461006d5780636e9cd2bc1461008b578063a42a4663146100a9575b600080fd5b61006b60048036038101906100669190610a69565b6100d9565b005b6100756104c2565b6040516100829190610acb565b60405180910390f35b61009361050d565b6040516100a09190610cc7565b60405180910390f35b6100c360048036038101906100be9190610d15565b61065e565b6040516100d09190610acb565b60405180910390f35b42610384600260003373ffffffffffffffffffffffffffffffffffffffff1673ffffffffffffffffffffffffffffffffffffffff168152602001908152602001600020546101279190610d71565b10610167576040517f08c379a000000000000000000000000000000000000000000000000000000000815260040161015e90610e02565b60405180910390fd5b42600260003373ffffffffffffffffffffffffffffffffffffffff1673ffffffffffffffffffffffffffffffffffffffff1681526020019081526020016000208190555060016000808282546101bd9190610d71565b92505081905550600360405180606001604052803373ffffffffffffffffffffffffffffffffffffffff16815260200183815260200142815250908060018154018082558091505060019003906000526020600020906003020160009091909190915060008201518160000160006101000a81548173ffffffffffffffffffffffffffffffffffffffff021916908373ffffffffffffffffffffffffffffffffffffffff160217905550602082015181600101908161027c919061102e565b506040820151816002015550506102c96040518060400160405280601c81526020017f25732073656e642061207374617220772f206d65737361676520257300000000815250338361070f565b606444426102d79190610d71565b6102e1919061112f565b6001819055506103286040518060400160405280601681526020017f52616e646f6d20232067656e6572617465643a202564000000000000000000008152506001546107ae565b6032600154101561046f576103726040518060400160405280600881526020017f257320776f6e20210000000000000000000000000000000000000000000000008152503361084a565b6000655af3107a40009050478111156103c0576040517f08c379a00000000000000000000000000000000000000000000000000000000081526004016103b7906111d2565b60405180910390fd5b60003373ffffffffffffffffffffffffffffffffffffffff16826040516103e690611223565b60006040518083038185875af1925050503d8060008114610423576040519150601f19603f3d011682016040523d82523d6000602084013e610428565b606091505b505090508061046c576040517f08c379a0000000000000000000000000000000000000000000000000000000008152600401610463906112aa565b60405180910390fd5b50505b3373ffffffffffffffffffffffffffffffffffffffff167f6863c292df906411c35af226e1ebe6a4119147b8de837e11c889e8d40b040a4042836040516104b7929190611303565b60405180910390a250565b60006105056040518060400160405280601681526020017f5765206861766520256420746f74616c207374617273000000000000000000008152506000546107ae565b600054905090565b60606003805480602002602001604051908101604052809291908181526020016000905b8282101561065557838290600052602060002090600302016040518060600160405290816000820160009054906101000a900473ffffffffffffffffffffffffffffffffffffffff1673ffffffffffffffffffffffffffffffffffffffff1673ffffffffffffffffffffffffffffffffffffffff1681526020016001820180546105ba90610e51565b80601f01602080910402602001604051908101604052809291908181526020018280546105e690610e51565b80156106335780601f1061060857610100808354040283529160200191610633565b820191906000526020600020905b81548152906001019060200180831161061657829003601f168201915b5050505050815260200160028201548152505081526020019060010190610531565b50505050905090565b60026020528060005260406000206000915090505481565b61070c8160405160240161068a9190611333565b6040516020818303038152906040527f41304fac000000000000000000000000000000000000000000000000000000007bffffffffffffffffffffffffffffffffffffffffffffffffffffffff19166020820180517bffffffffffffffffffffffffffffffffffffffffffffffffffffffff83818316178352505050506108e6565b50565b6107a983838360405160240161072793929190611364565b6040516020818303038152906040527fe0e9ad4f000000000000000000000000000000000000000000000000000000007bffffffffffffffffffffffffffffffffffffffffffffffffffffffff19166020820180517bffffffffffffffffffffffffffffffffffffffffffffffffffffffff83818316178352505050506108e6565b505050565b61084682826040516024016107c49291906113a9565b6040516020818303038152906040527fb60e72cc000000000000000000000000000000000000000000000000000000007bffffffffffffffffffffffffffffffffffffffffffffffffffffffff19166020820180517bffffffffffffffffffffffffffffffffffffffffffffffffffffffff83818316178352505050506108e6565b5050565b6108e282826040516024016108609291906113d9565b6040516020818303038152906040527f319af333000000000000000000000000000000000000000000000000000000007bffffffffffffffffffffffffffffffffffffffffffffffffffffffff19166020820180517bffffffffffffffffffffffffffffffffffffffffffffffffffffffff83818316178352505050506108e6565b5050565b60008151905060006a636f6e736f6c652e6c6f679050602083016000808483855afa5050505050565b6000604051905090565b600080fd5b600080fd5b600080fd5b600080fd5b6000601f19601f8301169050919050565b7f4e487b7100000000000000000000000000000000000000000000000000000000600052604160045260246000fd5b6109768261092d565b810181811067ffffffffffffffff821117156109955761099461093e565b5b80604052505050565b60006109a861090f565b90506109b4828261096d565b919050565b600067ffffffffffffffff8211156109d4576109d361093e565b5b6109dd8261092d565b9050602081019050919050565b82818337600083830152505050565b6000610a0c610a07846109b9565b61099e565b905082815260208101848484011115610a2857610a27610928565b5b610a338482856109ea565b509392505050565b600082601f830112610a5057610a4f610923565b5b8135610a608482602086016109f9565b91505092915050565b600060208284031215610a7f57610a7e610919565b5b600082013567ffffffffffffffff811115610a9d57610a9c61091e565b5b610aa984828501610a3b565b91505092915050565b6000819050919050565b610ac581610ab2565b82525050565b6000602082019050610ae06000830184610abc565b92915050565b600081519050919050565b600082825260208201905092915050565b6000819050602082019050919050565b600073ffffffffffffffffffffffffffffffffffffffff82169050919050565b6000610b3d82610b12565b9050919050565b610b4d81610b32565b82525050565b600081519050919050565b600082825260208201905092915050565b60005b83811015610b8d578082015181840152602081019050610b72565b60008484015250505050565b6000610ba482610b53565b610bae8185610b5e565b9350610bbe818560208601610b6f565b610bc78161092d565b840191505092915050565b610bdb81610ab2565b82525050565b6000606083016000830151610bf96000860182610b44565b5060208301518482036020860152610c118282610b99565b9150506040830151610c266040860182610bd2565b508091505092915050565b6000610c3d8383610be1565b905092915050565b6000602082019050919050565b6000610c5d82610ae6565b610c678185610af1565b935083602082028501610c7985610b02565b8060005b85811015610cb55784840389528151610c968582610c31565b9450610ca183610c45565b925060208a01995050600181019050610c7d565b50829750879550505050505092915050565b60006020820190508181036000830152610ce18184610c52565b905092915050565b610cf281610b32565b8114610cfd57600080fd5b50565b600081359050610d0f81610ce9565b92915050565b600060208284031215610d2b57610d2a610919565b5b6000610d3984828501610d00565b91505092915050565b7f4e487b7100000000000000000000000000000000000000000000000000000000600052601160045260246000fd5b6000610d7c82610ab2565b9150610d8783610ab2565b9250828201905080821115610d9f57610d9e610d42565b5b92915050565b600082825260208201905092915050565b7f576169742031356d000000000000000000000000000000000000000000000000600082015250565b6000610dec600883610da5565b9150610df782610db6565b602082019050919050565b60006020820190508181036000830152610e1b81610ddf565b9050919050565b7f4e487b7100000000000000000000000000000000000000000000000000000000600052602260045260246000fd5b60006002820490506001821680610e6957607f821691505b602082108103610e7c57610e7b610e22565b5b50919050565b60008190508160005260206000209050919050565b60006020601f8301049050919050565b600082821b905092915050565b600060088302610ee47fffffffffffffffffffffffffffffffffffffffffffffffffffffffffffffffff82610ea7565b610eee8683610ea7565b95508019841693508086168417925050509392505050565b6000819050919050565b6000610f2b610f26610f2184610ab2565b610f06565b610ab2565b9050919050565b6000819050919050565b610f4583610f10565b610f59610f5182610f32565b848454610eb4565b825550505050565b600090565b610f6e610f61565b610f79818484610f3c565b505050565b5b81811015610f9d57610f92600082610f66565b600181019050610f7f565b5050565b601f821115610fe257610fb381610e82565b610fbc84610e97565b81016020851015610fcb578190505b610fdf610fd785610e97565b830182610f7e565b50505b505050565b600082821c905092915050565b600061100560001984600802610fe7565b1980831691505092915050565b600061101e8383610ff4565b9150826002028217905092915050565b61103782610b53565b67ffffffffffffffff8111156110505761104f61093e565b5b61105a8254610e51565b611065828285610fa1565b600060209050601f8311600181146110985760008415611086578287015190505b6110908582611012565b8655506110f8565b601f1984166110a686610e82565b60005b828110156110ce578489015182556001820191506020850194506020810190506110a9565b868310156110eb57848901516110e7601f891682610ff4565b8355505b6001600288020188555050505b505050505050565b7f4e487b7100000000000000000000000000000000000000000000000000000000600052601260045260246000fd5b600061113a82610ab2565b915061114583610ab2565b92508261115557611154611100565b5b828206905092915050565b7f54686520636f6e747261637420686173206e6f7420656e6f7567682066756e6460008201527f7300000000000000000000000000000000000000000000000000000000000000602082015250565b60006111bc602183610da5565b91506111c782611160565b604082019050919050565b600060208201905081810360008301526111eb816111af565b9050919050565b600081905092915050565b50565b600061120d6000836111f2565b9150611218826111fd565b600082019050919050565b600061122e82611200565b9150819050919050565b7f4661696c656420746f207769746864726177206d6f6e65792066726f6d20636f60008201527f6e74726163742e00000000000000000000000000000000000000000000000000602082015250565b6000611294602783610da5565b915061129f82611238565b604082019050919050565b600060208201905081810360008301526112c381611287565b9050919050565b60006112d582610b53565b6112df8185610da5565b93506112ef818560208601610b6f565b6112f88161092d565b840191505092915050565b60006040820190506113186000830185610abc565b818103602083015261132a81846112ca565b90509392505050565b6000602082019050818103600083015261134d81846112ca565b905092915050565b61135e81610b32565b82525050565b6000606082019050818103600083015261137e81866112ca565b905061138d6020830185611355565b818103604083015261139f81846112ca565b9050949350505050565b600060408201905081810360008301526113c381856112ca565b90506113d26020830184610abc565b9392505050565b600060408201905081810360008301526113f381856112ca565b90506114026020830184611355565b939250505056fea26469706673582212205885d5b4be2d8224404ae4420b3e09a1004fdf167aa7e068356365159cd7a69064736f6c63430008110033",
    "linkReferences": {},
    "deployedLinkReferences": {}
}